:020000040000FA
:1000000038020020F100000017010000D5000000B8
:1000100000000000000000000000000000000000E0
:100020000000000000000000000000001B010000B4
:1000300000000000000000001D0100001F01000082
:100040002101000021010000210100002101000028
:100050002101000021010000210100002101000018
:10006000210100002101000021010000150C000009
:1000700021010000210100002101000021010000F8
:1000800021010000210100002101000021010000E8
:1000900021010000210100002101000021010000D8
:1000A0002101000021010000D9060000210100000B
:1000B0002101000065020000210100002101000073
:1000C0000348854600F09AF80048004735130000C1
:1000D0003802002004207146084202D0EFF3098064
:1000E00001E0EFF308807146004A10477D060000EA
:1000F0000C480D4901600D4901600D4901600D4A30
:100100000D4911600D4A0E491160002101600D4832
:1001100080470D480047FEE7FEE7FEE7FEE7FEE703
:10012000FEE700000001004059000000160000003A
:100130008800000024000040A55A00008002004012
:1001400001000000F90A0000C100000030B50B46B4
:10015000014600202022012409E00D46D5409D42A1
:1001600005D31D469540491B254695404019154627
:10017000521E002DF1DC30BD03460B439B0703D01C
:1001800009E008C9121F08C0042AFAD203E00B785C
:100190000370401C491C521EF9D27047F0B51FB4C1
:1001A0000646002082B005464024019100901BE0E5
:1001B000019922460F46304600F042F8049A059B0A
:1001C000801A994110D310461946224600F028F8AB
:1001D000361A8F410197224601200021009F00F02E
:1001E0001FF838184D4100902046641E0028DFDCBF
:1001F000019B00982946324607B0F0BD064C012508
:10020000064E05E0E36807CC2B430C3C98471034BE
:10021000B442F7D3FFF758FFEC1400000C150000B0
:1002200010B5202A04DB0146203A9140002010BD81
:10023000914020239C1A0346E3401943904010BD8F
:1002400010B5202A04DB0846203AD040002110BD1A
:100250000B46D340D0402024A21A914008431946AF
:1002600010BD000001490120086170478030044042
:1002700070B51249CA6852085200CA60012383400F
:100280000F4D00221C461146284600F01DF80A2298
:100290000021284600F0B4F80948803041684460E5
:1002A00001684215114301600168C21411430160E5
:1002B00000F02EFB03490020C86370BD1000002031
:1002C000003004404048004070B50446FF3481349B
:1002D00065688030ED07002D15D1056801263603CD
:1002E000354305600568ED04FCD465680126354397
:1002F00065602568354325600568F602354305606D
:100300006568ED07FCD00468034D2C400C43144392
:1003100004604168436070BDF3FBFFFFF8B5002443
:100320002D4D2E4E27460094002802D001281FD1C3
:100330001FE02B4F2B48005D288000262888C0B284
:10034000FFF796FFE868C007FCD00020F8636988D3
:100350000098761C4018B6B20090082EEED34003E9
:100360006200010C1D48641CE4B28152072CE1D3E9
:10037000F8BD1C48005D28802888C0B2FFF778FFD0
:10038000E868C007FCD01648C7636000315ACA004D
:10039000511A00916A88641C891800914903090C5C
:1003A000E4B23152072CE4D30F4F00246000355AD9
:1003B0000E4839466843FFF7C9FE024629460CA09D
:1003C00000F04CFD062C02D10CA000F047FD641C8F
:1003D000E4B2072CEAD3F8BD100000202A00002068
:1003E00040480040D4140000FF0F0000E40C00005F
:1003F0002533583A253464202C0000000D0A0000F3
:100400008030016A090A0902114301627047000045
:100410000EB509490EC900910192810F8A0002931D
:1004200069468A58054951184A68C306DB0E0120FF
:10043000984002434A600EBD9C1400000002004038
:1004400002490A6802430A60704700000002004047
:1004500010B500F007FB0148006810BD0000002047
:1004600002480068C00700D0014870470002004001
:100470000048E80104480068800702D50120C00355
:1004800070470020704700000002004010B500F0E7
:10049000E9FA0448406B41070348490F0068C84027
:1004A00010BD0000000200400000002010B500F068
:1004B000D9FA0448406B4006410F03480068C84021
:1004C00010BD0000000200400000002008B511A08F
:1004D00000681149009009680020052212041142A9
:1004E00016D1080301D50D4800E00D488A030FD44A
:1004F0000A04920F6B469B5CCA058904D20DC90E93
:10050000891C8008921C59435043FFF71FFE80004E
:1005100008BD00000102020440020040001BB700B9
:100520000048E801F3B5124881B005690F46102074
:100530000F4C0540403C20680426304320601020CA
:1005400000F062F82069072108432061206A000951
:1005500000013843206220698843019908432061E3
:1005600000F080FA002D02D12068B0432060FEBD6B
:1005700040020040F0B5194B88B0F0CB009401ACBC
:10058000E0C478CB04AF78C7840A23061B0E0ED0D4
:1005900003039B0F9B0004ADEB58114D5B19E5B2B3
:1005A0008405E40EA5401C68AC4314431C60420E55
:1005B000520710D08200920F92006B469A58084B57
:1005C000103BD21803015B0FC001C00E83401068BE
:1005D00098430843106008B0F0BD00007C14000090
:1005E0002002004006490968484306494861002244
:1005F0008A61052008610869C003FCD50A6170475B
:100600000400002000E000E010B504460749084B54
:1006100005E00A46491E002A01DC002010BD1A69C7
:1006200020469043F5D1012010BD000080F5200048
:100630004002004010B5064C01229103204600F014
:1006400009F80122D103204600F004F810BD000093
:1006500040400040F0B5002301273C469C400C423E
:1006600008D005685C000326A640B5431646A640A0
:10067000354305605B1C102BEFD3F0BD044603A08F
:1006800000F0ECFB204600F071FEFEE7496E2048CA
:10069000617264204661756C742048616E646C659B
:1006A000720A000010B50124A3028C40C318002A6E
:1006B00007D0012A09D0022A02D1986B20439863FF
:1006C00010BD98692043986110BD090142588023EC
:1006D0009A43425010BD000070B5104CE0691025DF
:1006E000C107002908D0206AC00603D50C490DA017
:1006F00000F0B4FB256270BD80070BD5606AC006B0
:1007000006D50B49CA6801200243CA600949C8637B
:10071000656270BD08A000F0A1FB70BD00840040C0
:10072000DC14000025732061626F72740D0A0000F2
:100730001000002040480040756E6B6E6F776E2091
:1007400050444D4120696E74657272757074202139
:10075000210A00007CB5164D1021284600F030F823
:1007600001231A030421284600F05EF811490024F1
:10077000032300911B02104A01940421284600F033
:1007800042F80023142204212846009400F05EF869
:10079000042200231146284600F02AF800220421F2
:1007A0002846FFF77FFF0549E80208607CBD00008E
:1007B00000800040120000200031044000E100E011
:1007C00070B50022094D01261346344694400C4270
:1007D00002D014010351AB54521C092AF5D3012253
:1007E0009202801802680A43026070BD2000002057
:1007F00030B5090144587425AC43445044581A4359
:100800001443445030BD70B509010E18049D059C79
:100810007260B56042580F252D02AA4342504258DB
:1008200023431A43425070BD30B509014458064D68
:100830002C404450445801251B042D045B1B1343DA
:100840001C43445030BD0000FFCF0000FFB52F4BCC
:1008500017025A540923DB01C418160415060B00AD
:1008600000F00CFB09060C12191F252B32383D0035
:1008700023689B099B011343236030E022683F23D8
:100880001B029A433A4304E022683F231B049A4325
:100890003243226023E022683F231B069A432A4307
:1008A000F7E763689B099B011343636017E0626885
:1008B0003F231B029A433A4304E062683F231B0430
:1008C0009A43324362600AE062683F231B069A4300
:1008D0002A43F7E7A3689B099B011343A360039A8C
:1008E0000901002A42580CD092089200921C4250F2
:1008F000012292028218D36B099AD21A0818C26098
:10090000FFBD92089200521C4250FFBD2000002003
:1009100038B5084C01231A0304212046FFF784FF51
:1009200000210B460091142204212046FFF78EFF80
:1009300038BD00000080004070B500F075F804205C
:10094000FFF77EFD1020FFF75FFE00210720FFF775
:10095000E9FD274C2046FFF75BFD012100228906B7
:100960002046FFF707FE234D2846FFF751FD0124DF
:100970006405002221462846FFF7FCFD1E4D28464F
:10098000FFF746FD0B22120421462846FFF7F2FD31
:100990000120FFF73DFD00F065F86002C16BFF220A
:1009A00012049143332252048918C163816B0F22D0
:1009B00012069143821189188163816B0F4A11409D
:1009C0000F4A89188163816B090B0903FF311231CA
:1009D00081630C4C00227F212046FFF73BFE6168BB
:1009E0007F2212041143616007490020086070BD36
:1009F000103D805F0500405F1CFE4367FF0F00FF56
:100A00000010110040400040000100400121020E92
:100A1000890751188B680122824013438B608868D4
:100A2000904388607047000010B559210448162291
:100A300088230160026003600468002CF9D010BDB7
:100A40000001004006498A691202FCD40A2804D138
:100A50000D220A608A691202FCD408607047000007
:100A600000000740F8B51D4D28691C4944071CA02B
:100A700000680090640F00204031096805221204CC
:100A8000114216D1080301D5164800E016488A0322
:100A90000FD40A04920F6B469B5CCA058904D20DE1
:100AA000C90E891C8008921C59435043FFF74EFB26
:100AB00080000E4E022CB06002D00D49A0000858F4
:100AC000296A0907090F491CFFF740FB09493060F3
:100AD0004A108018FFF73AFB7060F8BD0002004032
:100AE00001020204001BB7000048E80100000020DA
:100AF0001414000040420F0010B559210A48162373
:100B000088220160036002600468002CF9D0074964
:100B10000B680722120593430B600B6813430B60AD
:100B20000021016010BD00000001004000020040F3
:100B300010B50A4C7D220121D200C906204600F0E2
:100B400049F8206821060843206088140449086099
:100B5000206889050843206010BD00002010054072
:100B600000E100E010B588B004462022154968462F
:100B7000FFF702FB144B144A14482033944202D16D
:100B80004069000A0BE09C4202D14069000B06E07C
:100B90000F4940698C4201D1000C00E0000D410773
:100BA000490F022904D088006946085808B010BDD2
:100BB000944201D09C4202D1FFF768FCF6E7FFF7B0
:100BC00075FCF3E7B414000000000540000200408B
:100BD00000100540F7B517460646FFF7C3FF054668
:100BE00000244008B84201D8022008E039462846CF
:100BF000FFF7ACFA040E02D0611CFFF7A7FA0199C7
:100C0000214331607060641C604301462846FFF751
:100C10009DFAFEBD0A488168C907C90F0FD001239C
:100C2000836008498888421C8A807D22D2009042D5
:100C300005D3002088800448816B59408163704748
:100C400020100540100000204048004010B5134817
:100C5000FFF7DCFEE1214902114800F065F8FFF7DB
:100C6000F7FB01460FA000F0F9F8FFF7F9FB01468A
:100C700013A000F0F3F8FFF7FDFB014616A000F00B
:100C8000EDF8FFF703FC014619A000F0E7F8FFF7C5
:100C90000DFC01461DA000F0E1F810BD100000049D
:100CA000000007400D0A434C4B5F476574435055A5
:100CB00046726571203A202538640D0A0000000054
:100CC000434C4B5F47657448585446726571203AEF
:100CD000202538640D0A0000434C4B5F4765744C77
:100CE000585446726571203A202538640D0A000078
:100CF000434C4B5F47657450434C4B3046726571B3
:100D0000203A202538640D0A00000000434C4B5F58
:100D100047657450434C4B3146726571203A20252B
:100D200038640D0A00000000F0B587B00F46044695
:100D300000252E4618223E496846FFF71DFA3D4918
:100D40003D483E4A8C4204D14369006A5B015D0F15
:100D50001FE03B4B9C4204D14369006A5B005D0F7E
:100D600022E0944204D1C369006B5B015D0F11E086
:100D7000344B9C4206D1C369006B5B005D0F0006DB
:100D8000060F13E0304B9C4207D1C369006B5B0335
:100D90005D0F000A0607360F08E02C4B9C4205D178
:100DA000C369006B5B025D0F0004060F0020206327
:100DB0000320E060A068264B1840A060012D02D0FF
:100DC000042D04D013E0FFF781FB01900FE08C426B
:100DD00007D0944205D01C48844202D01D4884426A
:100DE00002D1FFF753FB01E0FFF760FB0490002FF7
:100DF0001BD0A90068464058711CFFF7A7F90546AB
:100E0000790840183946FFF7A1F91349801E884236
:100E100007D9F90068183946FFF798F90009801ECC
:100E200002E0032109070843606207B0F0BD00003B
:100E3000341400000000074000020040002007407A
:100E400000100740003007400040074000500740B6
:100E50000FFFF0FF00600740FFFF00000FB410B568
:100E600003A9044B044A029800F024F810BC08BC03
:100E700004B01847291300000C00002030B4744659
:100E8000641E2578641CAB4200D21D46635D5B0086
:100E9000E31830BC184702E008C8121F08C1002A36
:100EA000FAD170477047002001E001C1121F002AEB
:100EB000FBD17047FFB591B00F460546002606E00E
:100EC00025280AD0149A139990476D1C761C28780F
:100ED0000028F5D1304615B0F0BD00240094012162
:100EE000F34A029400E004436D1C2B780846203B33
:100EF00098401042F7D128782A280ED0022128786D
:100F00000246303A092A15D8009A0A235A43303A41
:100F100080180C436D1C0090F1E701CF0090002871
:100F200005DA01204003044300984042009002206B
:100F300004436D1C28782E2815D1042004436878BA
:100F40006D1C2A280AD101CF6D1C02900BE002997A
:100F50000A225143303940186D1C0290287801460E
:100F600030390929F3D928786C2810D006DC4C28B0
:100F70001AD068280ED06A2817D104E0742813D03C
:100F80007A2812D110E00120400504430CE0012131
:100F9000090501E0032109050C436978814203D169
:100FA0000120000524186D1C6D1C287803906E2804
:100FB0001ED00CDC632831D004DC00288AD05828ED
:100FC00011D1B2E064287BD069280CD178E0732875
:100FD0002DD004DC6F2870D0702804D1A7E07528CC
:100FE0006CD078286BD0149A13999047761C62E0E5
:100FF0006002400F022807D003280AD0042838686E
:101000000AD006603F1D56E03868F117066041605F
:10101000F8E738680680F5E70670F3E73878694640
:1010200008740020487404A80390012003E0386885
:1010300003900020C0433F1D61070FD5002101E050
:101040000199491C029A0191914213DA8142F7DB1E
:10105000019A0399895C0029F2D10BE0002101E09B
:101060000199491C01918142FADB019A0399895C3B
:101070000029F5D101990098139A401A0090214651
:10108000149B00F03BF901998019461807E003987A
:1010900003990078491C0391149A13999047019879
:1010A000401E0190401CF2D12146149B139A0098D7
:1010B00000F014F986196D1C09E741E033E034E0D3
:1010C0000A200021049005916002410F022905D0F9
:1010D00001CFC2179446032905D007E0FF1DFF0882
:1010E000FF0003CF06E000B2C2179446042902D1E4
:1010F00040B2C1178C4600226146944506DA0A4682
:101100000021404291418C462D2102E0210504D569
:101110002B216A461176012103E0E10701D020214D
:10112000F7E7019154E00A200BE0102009E01020BD
:10113000049000210420044308200591029003E05C
:1011400008200021059104906002410F022905D07A
:1011500001CF00229446032906D006E0FF1DFF08B8
:10116000FF0003CF8C4603E080B2042900D1C0B257
:101170000021019121072BD50399702906D0049AEB
:101180001021059B4A401A4305D00EE040216A46D3
:101190001176012108E06146014306D030216A46FC
:1011A00011760399517602210191049A0821059B39
:1011B0004A401A430CD16146014301D1610707D56A
:1011C00030216A461176012101910299491E02914E
:1011D0000399582904D037A103910FA90F910DE06D
:1011E00039A1F9E76146059B049AFEF7D7FF039BF7
:1011F0008C469B5C0F9A521E0F92137061460143FE
:10120000F0D10F9807A9081A20300390600704D581
:10121000012000048443029801E001200290039918
:10122000884201DD401A00E0002041180290019838
:1012300009180098401A0090E00306D42146149B38
:10124000139A009800F05AF886190020049008E0DC
:1012500006A9085C149A139990470498401C761CC0
:10126000049001998842F3DBE0030CD52146149BDE
:10127000139A009800F042F8861904E0149A30207E
:1012800013999047761C0299481E02900029F5DCBC
:1012900008E00F980F990078491C0F91149A139940
:1012A0009047761C0399481E03900029F1DCFBE669
:1012B000092801003031323334353637383961622C
:1012C00063646566000000003031323334353637F0
:1012D000383941424344454600000000F8B5044611
:1012E00000251E461746880404D405E03946202010
:1012F000B0476D1C641EF9D52846F8BDFFB50446FD
:10130000002581B01E46C80301D5302700E0202704
:10131000880404D505E038460399B0476D1C641E67
:10132000F9D5284605B0F0BD10B50446FFF78AFB95
:10133000204610BDFFF700FBFFF788FCFFF77AF9A6
:10134000FFF7F6FB074801680122114301600648D8
:10135000FFF748F9FFF7FEF90020FEF7DFFF012055
:10136000FBE70000803004401027000010B5044661
:10137000016810A0FFF772FD11A06168FFF76EFD14
:1013800012A0A168FFF76AFD13A0E168FFF766FDF0
:1013900014A02169FFF762FD15A06169FFF75EFDEA
:1013A00016A0A169FFF75AFD17A0E169FFF756FDE6
:1013B00010BD0000723020203D20307825780A00D2
:1013C000723120203D20307825780A0072322020AA
:1013D0003D20307825780A00723320203D20307877
:1013E00025780A00723132203D20307825780A00B5
:1013F0006C7220203D20307825780A007063202010
:101400003D20307825780A00707372203D203078B6
:1014100025780A000048E8010080000000D8B805DF
:1014200000960000006CDC020000000000000000DC
:10143000006CDC020048E8010000000000800000B1
:10144000006CDC0200000000009600000048E8018B
:101450000000000000800000006CDC0200000000C2
:10146000009600000048E801000000000080000035
:10147000006CDC020000000000960000000000008C
:1014800004000000080000000C0000000000000044
:10149000000000000000000010000000000000003C
:1014A000040000000800000000000000040000002C
:1014B000080000000048E801008000000000000073
:1014C0000000000000000000009600000000000086
:1014D000006CDC02000102030405061050444D417B
:1014E0005F49525148616E646C6572000C150000D2
:1014F0000000002020000000960E00002C150000C7
:101500002000002018020000A60E000000D8B80538
:101510006000000000D8B8050000000000000000D6
:0C152000000000000000000000000000BF
:04000005000000F106
:00000001FF
